S00D000054656D61312E737265635F
S11300000C9434000C943E000C943E000C943E007E
S11300100C943E000C943E000C943E000C943E0064
S11300200C943E000C943E000C943E000C943E0054
S11300300C943E000C943E000C943E000C943E0044
S11300400C943E000C943E000C943E000C943E0034
S11300500C943E000C943E000C943E000C943E0024
S11300600C943E000C943E0011241FBECFEFD8E048
S1130070DEBFCDBF0E9459000C94C3000C94000055
S1130080FC01408121E030E002C0220F331F6A9559
S1130090E2F7242B20830895FC01908121E030E0D5
S11300A002C0220F331F6A95E2F72095292320838B
S11300B008958FEF84B987B98AB915B818B81BB8F1
S11300C064E08BE290E00E94400066E08BE290E006
S11300D00E94400060E085E290E00E94400062E0FF
S11300E085E290E00E94400065E08BE290E00E948F
S11300F04C0067E08BE290E00E944C0061E085E2F6
S113010090E00E944C0063E085E290E00E944C0085
S11301102FEF83ED90E3215080409040E1F700C041
S1130120000064E08BE290E00E944C0066E08BE209
S113013090E00E944C0060E085E290E00E944C0058
S113014062E085E290E00E944C0065E08BE290E082
S11301500E94400067E08BE290E00E94400061E072
S113016085E290E00E94400063E085E290E00E9416
S113017040002FEF83ED90E3215080409040E1F761
S10D018000C000009DCFF894FFCFEB
S9030000FC
