:100000000C9434000C948B000C9446000C94460025
:100010000C9446000C9446000C9446000C94460048
:100020000C9446000C9446000C9446000C94460038
:100030000C9446000C9446000C9446000C94460028
:100040000C9446000C9446000C9446000C94460018
:100050000C9446000C9446000C9446000C94460008
:100060000C9446000C94460011241FBECFEFD8E03C
:10007000DEBFCDBF21E0A0E0B1E001C01D92A13004
:10008000B207E1F70E946B000C949B000C940000F7
:10009000FC01408121E030E002C0220F331F6A954D
:1000A000E2F72427208308958AB180638AB98AB150
:1000B0008B7F8AB98BB184608BB98BB180618BB92E
:1000C0000895E9E6F0E08081836080838DB38160EC
:1000D0008DBB789408950E9454000E94610064E0F2
:1000E0008BE290E00E9448002FEF89E698E12150D2
:1000F00080409040E1F700C000008091000188231B
:1001000031F08BB180628BB910920001E8CF8BB1D6
:100110008F7D8BB9E4CF1F920F920FB60F921124EF
:100120008F9389B181E0809300018F910F900FBE72
:0A0130000F901F901895F894FFCF70
:00000001FF
