:100000000C9434000C943E000C943E000C943E0082
:100010000C943E000C943E000C943E000C943E0068
:100020000C943E000C943E000C943E000C943E0058
:100030000C943E000C943E000C943E000C943E0048
:100040000C943E000C943E000C943E000C943E0038
:100050000C943E000C943E000C943E000C943E0028
:100060000C943E000C943E0011241FBECFEFD8E04C
:10007000DEBFCDBF0E9459000C94FE000C9400001E
:10008000FC01408121E030E002C0220F331F6A955D
:10009000E2F7242B20830895FC01908121E030E0D9
:1000A00002C0220F331F6A95E2F72095292320838F
:1000B00008958FEF84B987B98AB915B818B81BB8F5
:1000C00064E08BE290E00E94400065E08BE290E00B
:1000D0000E9440002FEF81EE94E02150804090403C
:1000E000E1F700C0000064E08BE290E00E944C0069
:1000F00066E08BE290E00E9440002FEF81EE94E0FA
:10010000215080409040E1F700C0000065E08BE2A4
:1001100090E00E944C0067E08BE290E00E9440007B
:100120002FEF81EE94E0215080409040E1F700C035
:10013000000066E08BE290E00E944C0060E085E207
:1001400090E00E9440002FEF81EE94E0215080402B
:100150009040E1F700C0000067E08BE290E00E9471
:100160004C0061E085E290E00E9440002FEF81EEBC
:1001700094E0215080409040E1F700C0000060E032
:1001800085E290E00E944C0062E085E290E00E94EF
:1001900040002FEF81EE94E0215080409040E1F745
:1001A00000C0000061E085E290E00E944C0063E046
:1001B00085E290E00E9440002FEF81EE94E0215014
:1001C00080409040E1F700C0000062E085E290E0EE
:1001D0000E944C0064E08BE290E00E9440002FEF10
:1001E00081EE94E0215080409040E1F700C0000093
:1001F00063E085E290E00E944C0067CFF894FFCF67
:00000001FF
