:100000000C9434000C9446000C9446000C9446006A
:100010000C9446000C9446000C9446000C94460048
:100020000C9446000C9446000C9446000C94460038
:100030000C9446000C9446000C9446000C94460028
:100040000C9446000C9446000C9446000C94460018
:100050000C9446000C9491000C9446000C944600BD
:100060000C9446000C94460011241FBECFEFD8E03C
:10007000DEBFCDBF21E0A0E0B1E001C01D92A23003
:10008000B207E1F70E9475000C94E4000C940000A4
:100090008FEF84B915B817B818B80895ACE7B0E079
:1000A0001C92EAE7F0E010828C9180648C938C9132
:1000B0008F778C938C918F7D8C9380B7806880BF75
:1000C000808188608083789480818660808380814D
:1000D000806880838081806480830895F8940E9482
:1000E00048000E944E00789408950E946E00FFCF51
:1000F000FC01408121E030E002C0220F331F6A95ED
:10010000E2F7242B20830895FC01908121E030E068
:1001100002C0220F331F6A95E2F72095292320831E
:1001200008951F920F920FB60F9211242F933F93B1
:100130004F935F936F937F938F939F93AF93BF93EF
:10014000EF93FF9380917800282F30E030930101E6
:100150002093000190917900892F90E0982F8827B3
:10016000822B932B9093010180930001833C91405B
:1001700058F064E08BE290E00E94780065E08BE24A
:1001800090E00E9484000AC065E08BE290E00E944B
:10019000780064E08BE290E00E948400EAE7F0E0FF
:1001A000808180648083FF91EF91BF91AF919F9197
:1001B0008F917F916F915F914F913F912F910F9010
:0C01C0000FBE0F901F901895F894FFCF11
:00000001FF
