:100000000C9434000C943E000C943E000C943E0082
:100010000C943E000C943E000C943E000C943E0068
:100020000C943E000C943E000C943E000C943E0058
:100030000C943E000C943E000C943E000C943E0048
:100040000C943E000C943E000C943E000C943E0038
:100050000C943E000C943E000C943E000C943E0028
:100060000C943E000C943E0011241FBECFEFD8E04C
:10007000DEBFCDBF0E9484000C9423010C940000CD
:100080008FEF8AB91BB817B818B80895ACE7B0E07D
:100090001C92EAE7F0E010828C9180648C938C9142
:1000A0008F778C938C918F7D8C9380B7806880BF85
:1000B0008081806880838081886080838081866081
:1000C000808308950E9440000E9446000895ECE756
:1000D000F0E09081907F8F70892B8083EAE7F0E0D9
:1000E00080818064808380917A0086FDFCCF85E3E7
:1000F0008A95F1F70000209178008091790090E0D6
:10010000982F8827822B08950E9462009BB180E47B
:1001100089278BB980E00E9467009C01220F331F62
:10012000220F331F820F931FC92FC695C69520E05B
:10013000D22FBE0180E090E00E94C20020E030E0BB
:1001400040E850E40E94BD0088233CF48BB18061FC
:100150008BB98BB18F7D8BB906C08BB18F7E8BB97C
:100160008BB180628BB98FEF99E628E18150904086
:100170002040E1F700C00000C9CF0E94FF0008F452
:1001800081E00895E89409C097FB3EF4909580952E
:10019000709561957F4F8F4F9F4F9923A9F0F92F4D
:1001A00096E9BB279395F695879577956795B795CB
:1001B000F111F8CFFAF4BB0F11F460FF1BC06F5FB1
:1001C0007F4F8F4F9F4F16C0882311F096E911C0C3
:1001D000772321F09EE8872F762F05C0662371F0E4
:1001E00096E8862F70E060E02AF09A95660F771FF8
:1001F000881FDAF7880F9695879597F90895990FD4
:100200000008550FAA0BE0E8FEEF16161706E807E0
:10021000F907C0F012161306E407F50798F0621B01
:10022000730B840B950B39F40A2661F0232B242BD6
:10023000252B21F408950A2609F4A140A6958FEFF5
:0A024000811D811D0895F894FFCF81
:00000001FF
