:100000000C9434000C9446000C9446000C9446006A
:100010000C9446000C9446000C9446000C94460048
:100020000C9446000C9446000C9446000C94460038
:100030000C9446000C9446000C9446000C94460028
:100040000C9446000C9446000C9446000C94460018
:100050000C9446000C947B000C9446000C944600D3
:100060000C9446000C94460011241FBECFEFD8E03C
:10007000DEBFCDBF21E0A0E0B1E001C01D92A33002
:10008000B207E1F70E94BD000C9460010C940000DF
:100090008FEF84B915B817B818B80895ACE7B0E079
:1000A0001C92EAE7F0E010828C9180648C938C9132
:1000B0008F778C938C918F7D8C9380B7806880BF75
:1000C000808188608083789480818660808380814D
:1000D000806880838081806480830895F8940E9482
:1000E00048000E944E0078940895EAE7F0E080818D
:1000F0008064808308951F920F920FB60F9211248F
:100100002F933F938F939F9380917800282F30E017
:10011000309302012093010190917900892F90E0A2
:10012000982F8827822B932B9093020180930101B3
:1001300081E0809300019F918F913F912F910F90CB
:100140000FBE0F901F901895FC01408121E030E018
:1001500002C0220F331F6A95E2F7242B20830895F3
:10016000FC01908121E030E002C0220F331F6A952C
:10017000E2F720952923208308950E946E00809144
:1001800000018823E1F380910101909102019C011B
:10019000220F331F220F331F820F931FC92FC695C3
:1001A000C69580E0D82FBE0180E090E00E94FF005D
:1001B00020E030E040E450E40E94FA0088235CF440
:1001C00064E08BE290E00E94A40065E08BE290E0A6
:1001D0000E94B0000AC065E08BE290E00E94A4009B
:1001E00064E08BE290E00E94B000109200010E9457
:1001F0007500C5CF0E943C0108F481E00895E894A1
:1002000009C097FB3EF490958095709561957F4F5E
:100210008F4F9F4F9923A9F0F92F96E9BB2793950C
:10022000F695879577956795B795F111F8CFFAF41C
:10023000BB0F11F460FF1BC06F5F7F4F8F4F9F4F4D
:1002400016C0882311F096E911C0772321F09EE8AB
:10025000872F762F05C0662371F096E8862F70E011
:1002600060E02AF09A95660F771F881FDAF7880FEB
:100270009695879597F90895990F0008550FAA0B41
:10028000E0E8FEEF16161706E807F907C0F01216A9
:100290001306E407F50798F0621B730B840B950BAC
:1002A00039F40A2661F0232B242B252B21F4089501
:1002B0000A2609F4A140A6958FEF811D811D08959E
:0402C000F894FFCFE0
:00000001FF
