:100000000C9434000C9446000C9446000C9446006A
:100010000C9446000C9446000C9446000C94460048
:100020000C9446000C9446000C9446000C94460038
:100030000C9446000C9446000C9446000C94460028
:100040000C9446000C9446000C9446000C94460018
:100050000C9446000C9446000C9446000C94460008
:100060000C9446000C94460011241FBECFEFD8E03C
:10007000DEBFCDBF21E0A0E0B1E001C01D92A03005
:10008000B207E1F70E945C000C9488000C94000019
:100090009093C5008093C400E1ECF0E0808188611A
:1000A000808386E08093C20008959091C00095FF00
:1000B000FCCF8093C600089580E190E00E94480044
:1000C00084E50E9455002FE38DE093E021508040AD
:1000D0009040E1F700C0000085E40E9455002FE346
:1000E0008DE093E0215080409040E1F700C0000097
:1000F00083E50E9455002FE38DE093E0215080407E
:100100009040E1F700C0000084E50E945500FFCF59
:04011000F894FFCF91
:00000001FF
