S015000054656D61375F73657269616C612E7372656311
S11300000C9434000C9451000C9451000C94510045
S11300100C9451000C9451000C9451000C94510018
S11300200C9451000C9451000C9451000C94510008
S11300300C9451000C9451000C9451000C945100F8
S11300400C9451000C9451000C9451000C945100E8
S11300500C9451000C9451000C9451000C945100D8
S11300600C9451000C94510011241FBECFEFD8E022
S1130070DEBFCDBF11E0A0E0B1E0E4E2F1E002C0F8
S113008005900D92AE30B107D9F721E0AEE0B1E0B2
S113009001C01D92AE30B207E1F70E9474000C94C7
S11300A090000C9400009093C5008093C400E1EC90
S11300B0F0E080818861808386E08093C2000895A7
S11300C09091C00095FFFCCF8093C6000895CF9314
S11300D0DF93EC0103C00E946000219688818111A6
S11300E0FACFDF91CF910895CF93DF93CDB7DEB7E9
S11300F02E970FB6F894DEBF0FBECDBF80E190E01F
S11301000E9453008EE0E0E0F1E0DE0111960190E0
S11301100D928A95E1F7CE0101960E946700FFCF08
S1070120F894FFCF7D
S111012448656C6C6F20776F726C642120004C
S9030000FC
